:1000000012C02CC02BC02AC029C028C027C026C0BF
:1000100025C024C023C022C021C020C01FC01EC0D4
:100020001DC01CC01BC011241FBECFE5D4E0DEBF25
:10003000CDBF11E0A0E6B0E0EAE4FCE102C005902B
:100040000D92AA36B107D9F711E0AAE6B1E001C0D6
:100050001D92AE36B107E1F799D7F6CDD1CFCF9348
:10006000DF93CDB7DEB721970FB6F894DEBF0FBE92
:10007000CDBF8983A2E3B0E0E2E3F0E090818FE7B7
:1000800089238C93A2E3B0E0E2E3F0E080818F7DEE
:100090008C93A2E3B0E0E2E3F0E0808180648C9393
:1000A000A8E3B0E0E8E3F0E0808181608C9389818F
:1000B000882F90E0ADD08981882F90E0E0D0219604
:1000C0000FB6F894DEBF0FBECDBFDF91CF9108957C
:1000D000CF93DF93CDB7DEB721970FB6F894DEBF8D
:1000E0000FBECDBF8983A2E3B0E0E2E3F0E0808100
:1000F00080688C93A2E3B0E0E2E3F0E0808180626C
:100100008C93A2E3B0E0E2E3F0E080818F7B8C93FC
:10011000A8E3B0E0E8E3F0E080818E7F8C938981F2
:10012000882F90E075D08981882F90E0A8D0219603
:100130000FB6F894DEBF0FBECDBFDF91CF9108950B
:10014000CF93DF93CDB7DEB780E090E061D080E061
:1001500090E095D0DF91CF910895CF93DF93CDB705
:10016000DEB7A1E3B0E0E1E3F0E0808180688C934A
:10017000A1E3B0E0E1E3F0E0808180628C93A1E351
:10018000B0E0E1E3F0E0808180648C93A7E3B0E02D
:10019000E7E3F0E0808181608C9303D0DF91CF9121
:1001A0000895CF93DF93CDB7DEB7EFE4F0E081EAB7
:1001B0008083EEE4F0E08AE08083EDE4F0E01082FA
:1001C000ECE4F0E01082E7E4F0E01082E6E4F0E036
:1001D0001082EBE4F0E01082EAE4F0E08DE7808347
:1001E000E9E4F0E01082E8E4F0E08DE78083A7E343
:1001F000B0E0E7E3F0E0808182608C93A7E3B0E0B9
:10020000E7E3F0E0808184608C93DF91CF910895E3
:100210000F931F93CF93DF93CDB7DEB721970FB620
:10022000F894DEBF0FBECDBF898308E410E089815A
:10023000882F90E0AA2797FDA095BA2FBC01CD0189
:1002400008DADC01CB012DEC3CEC4CE45FE3BC01B3
:10025000CD0172D8DC01CB01BC01CD01B5D6DC01EA
:10026000CB01F8019183808321960FB6F894DEBF0D
:100270000FBECDBFDF91CF911F910F910895CF9306
:10028000DF93CDB7DEB721970FB6F894DEBF0FBE70
:10029000CDBF8983EAE4F0E08981882F90E09183E3
:1002A000808321960FB6F894DEBF0FBECDBFDF91DD
:1002B000CF910895CF93DF93CDB7DEB760970FB698
:1002C000F894DEBF0FBECDBF888B1F8671C080E063
:1002D00090E0AAE7B3E48B879C87AD87BE8720E0D8
:1002E00030E04AE753E46B857C858D859E8524D874
:1002F000DC01CB018F839887A987BA8720E030E0A3
:1003000040E85FE36F81788589859A8571D9882374
:100310000CF005C081E090E09E838D833CC020E01E
:100320003FEF4FE757E46F81788589859A85FED83E
:1003300018160CF027C020E030E040E251E46B8555
:100340007C858D859E85F8D7DC01CB01BC01CD0174
:100350003BD6DC01CB019E838D830FC089E190E009
:100360009C838B838B819C810197F1F79C838B838A
:100370008D819E8101979E838D838D819E810097C3
:1003800069F713C06F81788589859A851DD6DC0150
:10039000CB019E838D838D819E819A838983898100
:1003A0009A810197F1F79A8389838F858F5F8F8771
:1003B0009F858889981708F48ACF60960FB6F894BD
:1003C000DEBF0FBECDBFDF91CF910895CF93DF93F6
:1003D000CDB7DEB760970FB6F894DEBF0FBECDBFC6
:1003E000888B1F8671C080E090E0A0E8BFE38B8718
:1003F0009C87AD87BE8720E030E04AE753E46B85F9
:100400007C858D859E8598D7DC01CB018F8398876D
:10041000A987BA8720E030E040E85FE36F81788504
:1004200089859A85E5D888230CF005C081E090E0A5
:100430009E838D833CC020E03FEF4FE757E46F8100
:10044000788589859A8572D818160CF027C020E027
:1004500030E040E251E46B857C858D859E856CD7CC
:10046000DC01CB01BC01CD01AFD5DC01CB019E830A
:100470008D830FC089E190E09C838B838B819C816D
:100480000197F1F79C838B838D819E8101979E83D9
:100490008D838D819E81009769F713C06F81788568
:1004A00089859A8591D5DC01CB019E838D838D81D1
:1004B0009E819A83898389819A810197F1F79A8332
:1004C00089838F858F5F8F879F858889981708F428
:1004D0008ACF60960FB6F894DEBF0FBECDBFDF9116
:1004E000CF910895CF93DF93CDB7DEB761970FB665
:1004F000F894DEBF0FBECDBF898B8989282F30E0ED
:1005000088EE93E0AC01249FC001259F900D349F9D
:10051000900D11242AEF30E0B90138DBCB01888B34
:100520001F8671C080E090E0AAE7B3E48B879C87C8
:10053000AD87BE8720E030E04AE753E46B857C85D9
:100540008D859E85F9D6DC01CB018F839887A9879D
:10055000BA8720E030E040E85FE36F8178858985E5
:100560009A8546D888230CF005C081E090E09E83F0
:100570008D833CC020E03FEF4FE757E46F817885E3
:1005800089859A85D3D718160CF027C020E030E073
:1005900040E251E46B857C858D859E85CDD6DC015E
:1005A000CB01BC01CD0110D5DC01CB019E838D8335
:1005B0000FC089E190E09C838B838B819C810197A4
:1005C000F1F79C838B838D819E8101979E838D8320
:1005D0008D819E81009769F713C06F817885898529
:1005E0009A85F2D4DC01CB019E838D838D819E811F
:1005F0009A83898389819A810197F1F79A83898304
:100600008F858F5F8F879F858889981708F48ACF99
:1006100061960FB6F894DEBF0FBECDBFDF91CF91CC
:100620000895CF93DF93CDB7DEB721970FB6F89437
:10063000DEBF0FBECDBF898383DDA2E3B0E0E2E37E
:10064000F0E090818FE789238C93A2E3B0E0E2E3AE
:10065000F0E0808180628C93A2E3B0E0E2E3F0E01E
:1006600080818F7B8C93A8E3B0E0E8E3F0E08081A9
:1006700081608C9386E9CCDD86E901DE8981A6DE86
:100680005FDD21960FB6F894DEBF0FBECDBFDF91C0
:10069000CF910895CF93DF93CDB7DEB721970FB6F3
:1006A000F894DEBF0FBECDBF89834ADDA2E3B0E080
:1006B000E2E3F0E0808180688C93A2E3B0E0E2E3C3
:1006C000F0E080818F7D8C93A2E3B0E0E2E3F0E084
:1006D000808180648C93A8E3B0E0E8E3F0E080815F
:1006E0008E7F8C9386E994DD86E9C9DD89816EDE93
:1006F00027DD21960FB6F894DEBF0FBECDBFDF9188
:10070000CF910895CF93DF93CDB7DEB722970FB681
:10071000F894DEBF0FBECDBF9A83898311DDA2E3BB
:10072000B0E0E2E3F0E090818FE789238C93A2E3CD
:10073000B0E0E2E3F0E0808180628C93A2E3B0E07D
:10074000E2E3F0E080818F7B8C93A8E3B0E0E8E304
:10075000F0E0808181608C9386E95ADD86E98FDD47
:100760008981A8DDEDDC22960FB6F894DEBF0FBEBE
:10077000CDBFDF91CF910895CF93DF93CDB7DEB793
:1007800022970FB6F894DEBF0FBECDBF9A83898340
:10079000D7DCA2E3B0E0E2E3F0E0808180688C93F4
:1007A000A2E3B0E0E2E3F0E080818F7D8C93A2E3EE
:1007B000B0E0E2E3F0E0808180648C93A8E3B0E0F5
:1007C000E8E3F0E080818E7F8C9386E921DD86E985
:1007D00056DD89816FDDB4DC22960FB6F894DEBF5A
:1007E0000FBECDBFDF91CF910895CF93DF93CDB7EB
:1007F000DEB724970FB6F894DEBF0FBECDBF809151
:100800006000282F30E03C832B838B819C810097F4
:1008100031F02B813C812130310579F01CC0E6E3B9
:10082000F0E08081882F90E080719070009729F02F
:1008300081E090E09A83898310C0E0E3F0E080815A
:10084000882F90E088709070009729F021E030E0C8
:100850003A83298302C01A82198289819A81249657
:100860000FB6F894DEBF0FBECDBFDF91CF910895D4
:10087000CF93DF93CDB7DEB724970FB6F894DEBFE2
:100880000FBECDBF80916000282F30E03C832B83CA
:100890008B819C81009731F02B813C812130310587
:1008A000C1F02EC0E6E3F0E08081882F90E08870F0
:1008B0009070009729F5E3E3F0E08081882F90E0C5
:1008C000847090700097E1F481E090E09A838983CE
:1008D00019C0E0E3F0E08081882F90E08071907093
:1008E000009771F4E3E3F0E08081882F90E0887056
:1008F0009070009729F421E030E03A83298302C008
:100900001A82198289819A8124960FB6F894DEBFE3
:100910000FBECDBFDF91CF910895CF93DF93CDB7B9
:10092000DEB724970FB6F894DEBF0FBECDBF80911F
:100930006000282F30E03C832B838B819C810097C3
:1009400031F02B813C812130310509F140C0E6E3D3
:10095000F0E08081882F90E0887090700097B9F166
:10096000E3E3F0E08081882F90E08470907000973E
:1009700071F1E6E3F0E08081882F90E08071907063
:10098000009729F581E090E09A83898322C0E0E313
:10099000F0E08081882F90E0807190700097B9F02E
:1009A000E3E3F0E08081882F90E0887090700097FA
:1009B00071F0E0E3F0E08081882F90E08870907023
:1009C000009729F421E030E03A83298302C01A829B
:1009D000198289819A8124960FB6F894DEBF0FBEE2
:1009E000CDBFDF91CF910895CF93DF93CDB7DEB721
:1009F00024970FB6F894DEBF0FBECDBF8091600084
:100A0000282F30E03C832B838B819C81009731F031
:100A10002B813C8121303105C1F02EC0E6E3F0E0AE
:100A20008081882F90E088709070009729F5E3E32B
:100A3000F0E08081882F90E0847090700097E1F062
:100A400081E090E09A83898319C0E0E3F0E080813F
:100A5000882F90E080719070009771F4E3E3F0E0EC
:100A60008081882F90E088709070009729F021E0B5
:100A700030E03A83298302C01A82198289819A81DF
:100A800024960FB6F894DEBF0FBECDBFDF91CF9195
:100A90000895CF93DF93CDB7DEB724970FB6F894C0
:100AA000DEBF0FBECDBF80916000282F30E03C83B9
:100AB0002B838B819C81009731F02B813C812130ED
:100AC0003105C1F02EC0E6E3F0E08081882F90E090
:100AD00088709070009729F1E3E3F0E08081882F1F
:100AE00090E0847090700097E1F481E090E09A8348
:100AF000898319C0E0E3F0E08081882F90E0807165
:100B00009070009771F0E3E3F0E08081882F90E02F
:100B100088709070009729F421E030E03A832983AF
:100B200002C01A82198289819A8124960FB6F8949C
:100B3000DEBF0FBECDBFDF91CF910895CF93DF937E
:100B4000CDB7DEB722970FB6F894DEBF0FBECDBF8C
:100B5000E3E3F0E08081882F90E08270907000974E
:100B600029F081E090E09A83898302C01A82198279
:100B700089819A8122960FB6F894DEBF0FBECDBF51
:100B8000DF91CF910895CF93DF93CDB7DEB7E0E348
:100B9000F0E08081882F90E080719070009721F0C4
:100BA00081E0809360000BC0E6E3F0E08081882F55
:100BB00090E088709070009711F010926000DF91C3
:100BC000CF910895CF93DF93CDB7DEB722970FB6BD
:100BD000F894DEBF0FBECDBF15C080916000282FF6
:100BE00030E03A83298389819A81009731F0298105
:100BF0003A812130310521F005C08AE012DD02C0C2
:100C00008AE048DDF2DD882341F722960FB6F8949A
:100C1000DEBF0FBECDBFDF91CF910895CF93DF939D
:100C2000CDB7DEB722970FB6F894DEBF0FBECDBFAB
:100C300060C080916B01843040F4A5DF84E1F1DC79
:100C400080916B018F5F80936B0180916B01843089
:100C500060F080916B018D3040F495DF84E11ADD06
:100C600080916B018F5F80936B0180916B018D3060
:100C700060F080916B01843140F485DF84E1D1DC48
:100C800080916B018F5F80936B0180916B01843148
:100C900039F403C078DF85E5E2D9EADD8823D1F7AE
:100CA00080916B018531D1F480916C018F5F8093CD
:100CB0006C0180916000282F30E03A83298389817C
:100CC0009A81009731F029813A812130310521F054
:100CD00005C08AE0DFDC02C08AE0A3DC80916C0101
:100CE000863139F485E5BBD988E270DB29DA1092C8
:100CF0006C01BEDD882309F09CCF22960FB6F894D4
:100D0000DEBF0FBECDBFDF91CF910895CF93DF93AC
:100D1000CDB7DEB722970FB6F894DEBF0FBECDBFBA
:100D200018C080916000282F30E03A8329838981A0
:100D30009A81009731F029813A812130310521F0E3
:100D400005C085E58CD902C085E589D985E1809308
:100D50006B01E3DD882329F722960FB6F894DEBFF6
:100D60000FBECDBFDF91CF910895CF93DF93CDB765
:100D7000DEB722970FB6F894DEBF0FBECDBF15C009
:100D800080916000282F30E03A83298389819A81FD
:100D9000009731F029813A812130310521F005C0D9
:100DA0008AE078DC02C08AE03CDC1EDE882341F762
:100DB00022960FB6F894DEBF0FBECDBFDF91CF9164
:100DC0000895CF93DF93CDB7DEB722970FB6F8948F
:100DD000DEBF0FBECDBF18C080916000282F30E06D
:100DE0003A83298389819A81009731F029813A8158
:100DF0002130310521F005C085E531D902C085E5F6
:100E00002ED985E180936B0144DE882329F7229651
:100E10000FB6F894DEBF0FBECDBFDF91CF9108951E
:100E2000CF93DF93CDB7DEB722970FB6F894DEBF2E
:100E30000FBECDBF24C084D980916000282F30E040
:100E40003A83298389819A81009741F029813A81E7
:100E50002130310561F011C085E53AD96FDE882374
:100E6000D9F782E090E04EDC08C085E531D966DE36
:100E70008823D9F782E090E07FDC10926B015EDE80
:100E80008823C9F622960FB6F894DEBF0FBECDBFF9
:100E9000DF91CF910895CF93DF93CDB7DEB722973F
:100EA0000FB6F894DEBF0FBECDBFE3E3F0E0808164
:100EB000882F90E081709070882309F45EC0809143
:100EC0006000282F30E03A83298389819A81009736
:100ED00031F029813A812130310541F14DC082E064
:100EE00090E010DC82E372DA10926B0103C04BDEFB
:100EF00085E5B5D8E6E3F0E08081882F90E0887042
:100F00009070009749F4E0E3F0E08081882F90E052
:100F100080719070009759F3E3E3F0E08081882FAF
:100F200090E081709070882311F726C082E090E0F5
:100F300023DC82E34BDA10926B0103C024DE85E5EB
:100F40008ED8E6E3F0E08081882F90E08870907082
:100F5000009749F4E0E3F0E08081882F90E0807111
:100F60009070009759F3E3E3F0E08081882F90E0E0
:100F700081709070882311F7E3D822960FB6F89409
:100F8000DEBF0FBECDBFDF91CF910895CF93DF932A
:100F9000CDB7DEB7E2D881E08093600085E0A2DAC9
:100FA0003FDF10DE3DDF3ADE3BDF0CDE39DFAEDE59
:100FB00037DF08DE35DFD9DE33DF04DE31DF01DF86
:100FC0002FDF00DE68DFECCFEF92FF920F931F93CD
:100FD0007B018C0120E030E040E05FE4D8D2882340
:100FE0006CF020E030E040E05FE4C801B70152D18E
:100FF0008AD3605070408040904803C0C801B70158
:1010000082D31F910F91FF90EF900895A0E0B0E080
:10101000EBE0F8E0E4C52C015B01FA01DC019C91F6
:10102000923008F432C1EB018881823008F42CC17F
:10103000943071F4843009F028C1F20191818981E2
:10104000981709F422C111E6412E10E0512E1DC15E
:10105000843009F419C18230A9F4923009F015C125
:10106000CA01A20128E0DA010D90AD01EC0109925C
:10107000CE012150C1F7E5018981E20199818923DF
:10108000818300C1923009F4FFC0E201CA80DB8095
:10109000EB018A819B81E2012C813D814E815F8140
:1010A000EB01EC80FD800E811F81B601681B790B7E
:1010B000DB0177FF03C0709561957F4F603271054A
:1010C0000CF05DC01A161B065CF5662477244301FC
:1010D00081E090E0A0E0B0E0062E04C0880F991FE8
:1010E000AA1FBB1F0A94D2F70197A109B1098E214B
:1010F0009F21A023B1230097A105B10529F0B1E0FC
:101100006B2E712C812C912C04C016950795F794A9
:10111000E7946A95D2F7E628F728082919293BC0F1
:10112000AB2BC9F1C60ED71E66247724430181E09C
:1011300090E0A0E0B0E0062E04C0880F991FAA1F1F
:10114000BB1F0A94D2F70197A109B1098223932307
:10115000A423B5230097A105B10529F0A1E06A2ECB
:10116000712C812C912C04C0569547953795279565
:101170006A95D2F726293729482959290CC08C1598
:101180009D0534F06C0120E030E040E050E003C009
:10119000EE24FF248701E2019981E50189819817F6
:1011A00009F443C0992339F0E21AF30A040B150B32
:1011B000A801970104C02E193F09400B510B57FDA0
:1011C00008C01182D382C282248335834683578329
:1011D0001DC081E08183D382C28288279927DC01E8
:1011E000821B930BA40BB50B84839583A683B783D3
:1011F0000DC0220F331F441F551F248335834683A0
:1012000057838281938101979383828324813581DF
:1012100046815781DA01C9010197A109B1098F5FA0
:101220009F4FAF4FBF4328F30BC09183D382C2823D
:101230002E0D3F1D401F511F248335834683578346
:1012400083E0808324813581468157815523D4F4FE
:10125000C901AA2797FDA095BA2F81709070A07040
:10126000B0705695479537952795822B932BA42BD5
:10127000B52B84839583A683B7838281938101965E
:10128000938382832F0101C02501C201E0E1CDB724
:10129000DEB7C1C4A0E2B0E0EFE4F9E0AAC469831C
:1012A0007A838B839C832D833E834F83588709E009
:1012B000E02EF12CEC0EFD1EB701CE010196A0D35D
:1012C0008E010F5E1F4FB801CE01059699D38A8912
:1012D00091E089278A8BAE01475E5F4FB801C70155
:1012E00095DEAED2E6E0A096A0C4A0E2B0E0EAE7C8
:1012F000F9E07FC469837A838B839C832D833E834B
:101300004F83588789E0E82EF12CEC0EFD1EB701C3
:10131000CE01019675D38E010F5E1F4FB801CE012D
:1013200005966ED3AE01475E5F4FB801C7016EDE12
:1013300087D2E6E0A09679C4A0E2B0E0E1EAF9E065
:101340004EC469837A838B839C832D833E834F8332
:10135000588799E0E92EF12CEC0EFD1EB701CE0165
:1013600001964ED38E010F5E1F4FB801CE01059638
:1013700047D39985923088F089898230C0F09430C3
:1013800019F4823029F009C0843029F4923079F4BC
:1013900061E670E0C6C0923041F420E09A858A8907
:1013A000981321E02A87B701BCC0823041F420E0C5
:1013B0009A858A89981321E02A8BB801B2C0CD841E
:1013C000DE84EF84F8880D891E892F89388D882462
:1013D0009924540140E050E060E070E0442455243A
:1013E0003201E0E0F0E0C60181709070892BD9F005
:1013F000800E911EA21EB31EDB01CA01840D951D35
:10140000A61DB71D40E050E060E070E08016910638
:10141000A206B30620F441E050E060E070E0480F1F
:10142000591F6A1F7B1F440C551C661C771C37FF15
:1014300008C081E090E0A0E0B0E0482A592A6A2A7A
:101440007B2A3196E032F10549F0000F111F221F6F
:10145000331FF694E794D794C794C5CF8B899C89A2
:101460002B853C85820F931F02969C8F8B8F1A8E43
:101470009A858A89981711F081E08A8F2B8D3C8D8F
:1014800017C0CA0181709070892B61F0B694A7943F
:101490009794879480E090E0A0E0B0E8882A992AA9
:1014A000AA2ABB2A76956795579547952F5F3F4F98
:1014B00077FDE7CFC9010BC0440F551F661F771F8B
:1014C000B7FC4160880C991CAA1CBB1C01974030DA
:1014D000A0E05A07A0E06A07A0E47A0768F39C8FAF
:1014E0008B8FDB01CA018F779070A070B070803451
:1014F0009105A105B10561F447FD0AC0811491046D
:10150000A104B10429F0405C5F4F6F4F7F4F4078DA
:101510004D8F5E8F6F8F78A383E0898FBE01675EEA
:101520007F4FCB018DD1E0E1A09675C3A8E1B0E07B
:10153000EBE9FAE05EC369837A838B839C832D8316
:101540003E834F83588789E0E82EF12CEC0EFD1E78
:10155000B701CE01019654D28E010F5E1F4FB80124
:10156000CE0105964DD28985823058F08989823026
:1015700040F0B801C701B4D2282F332727FD30959A
:1015800002C02FEF3FEFC901E6E068964EC3A8E125
:10159000B0E0ECECFAE02DC369837A838B839C8303
:1015A0002D833E834F83588789E0E82EF12CEC0E83
:1015B000FD1EB701CE01019623D28E010F5E1F4F93
:1015C000B801CE0105961CD28985823058F08989F0
:1015D000823040F0B801C70183D2282F332727FD7E
:1015E000309502C02FEF3FEFC901E6E068961DC3BA
:1015F000A8E1B0E0EDEFFAE0FCC269837A838B8367
:101600009C832D833E834F83588789E0E82EF12CFD
:10161000EC0EFD1EB701CE010196F2D18E010F5ED8
:101620001F4FB801CE010596EBD18985823058F065
:101630008989823040F0B801C70152D2282F332760
:1016400027FD309502C021E030E0C901E6E0689650
:10165000ECC2A8E0B0E0EEE2FBE0C8C29B01AC0146
:1016600083E08983DA01C9018827B7FD839599272B
:10167000AA27BB27B82E211531054105510519F4BC
:1016800082E0898339C08823A9F0203080E03807C0
:1016900080E0480780E8580729F460E070E080E0C7
:1016A0009FEC2EC0EE24FF248701E21AF30A040BFC
:1016B000150B02C079018A018EE1C82ED12CDC8283
:1016C000CB82ED82FE820F831887C801B7016BD0F1
:1016D00001971816190684F4082E04C0EE0CFF1C9E
:1016E000001F111F0A94D2F7ED82FE820F83188724
:1016F000C81AD90ADC82CB82BA82CE010196A0D068
:10170000E9E028968FC2ACE0B0E0E8E8FBE075C203
:1017100069837A838B839C83BE016B5F7F4FCE018D
:1017200001966ED18D818230A9F1823098F184309A
:1017300021F48E81882359F40FC02F81388537FD1D
:1017400029C06E812F31310564F0662329F020E035
:1017500030E040E050E822C02FEF3FEF4FEF5FE76F
:101760001DC08EE190E0821B930B29853A854B8545
:101770005C8504C056954795379527958A95D2F78D
:10178000662361F050954095309521953F4F4F4F1E
:101790005F4F04C020E030E040E050E0CA01B901F2
:1017A000E2E02C9646C2EF92FF920F931F939B01AB
:1017B000AC01203080E0380781E0480780E058071E
:1017C00080F42F3F31054105510509F020F4EE2446
:1017D000FF24870119C068E0E62EF12C012D112DA0
:1017E00013C0203080E0380780E0480781E05807C8
:1017F00030F490E1E92EF12C012D112D05C088E186
:10180000E82EF12C012D112D80E290E0A0E0B0E057
:101810008E199F09A00BB10B04C0569547953795BB
:101820002795EA94D2F7F901E759FF4F2081821BEF
:101830009109A109B1091F910F91FF90EF900895AF
:101840009F92AF92BF92CF92DF92EF92FF920F934F
:101850001F93EE24FF248701FC01248135814681FA
:10186000578191808081823010F44061A2C0843021
:1018700009F49BC0823029F420E030E040E050E0E1
:1018800005C0211531054105510519F4E0E0F0E0EE
:1018900092C0828193816FEF823896070CF05AC014
:1018A00062E87FEF681B790B6A3171052CF020E04C
:1018B00030E040E050E02AC0AA24BB24650181E06A
:1018C00090E0A0E0B0E0062E04C0880F991FAA1F88
:1018D000BB1F0A94D2F70197A109B1098223932370
:1018E000A423B5230097A105B10529F071E0A72E27
:1018F000B12CC12CD12C04C056954795379527950E
:101900006A95D2F72A293B294C295D29DA01C901B8
:101910008F779070A070B07080349105A105B105EB
:1019200039F427FF09C0205C3F4F4F4F5F4F04C081
:10193000215C3F4F4F4F5F4F80E090E0203060E0F0
:10194000360760E0460760E4560710F081E090E05B
:10195000FC0123C08038910544F5FC01E158FF4F9C
:10196000DA01C9018F779070A070B0708034910552
:10197000A105B10539F427FF09C0205C3F4F4F4F47
:101980005F4F04C0215C3F4F4F4F5F4F57FF05C073
:101990005695479537952795319687E05695479503
:1019A000379527958A95D1F706C020E030E040E0D2
:1019B00050E0EFEFF0E0E22EF32E942F9F77802F90
:1019C0008078892B9E2F9795992797958F77082F49
:1019D000092B9E2F9695812F8078892B9794992497
:1019E00097948F77182F1929C801B7011F910F916C
:1019F000FF90EF90DF90CF90BF90AF909F900895B1
:101A0000CF93DF93FC01DB01208131819281492F4B
:101A10004F7750E0991F9927991F8381E82FEE0F88
:101A2000E92B6E2F70E0881F8827881FED018983BE
:101A3000EE2371F5211531054105510511F482E0C0
:101A40002FC06E577040FD017383628367E0220FE1
:101A5000331F441F551F6A95D1F783E08C930AC04A
:101A6000220F331F441F551FED018A819B8101976F
:101A70009B838A832030E0E03E07E0E04E07E0E40D
:101A80005E0770F3ED012C833D834E835F8325C099
:101A9000EF3F79F4211531054105510519F484E032
:101AA0008C931BC044FF03C081E08C9311C01C9237
:101AB0000FC06F577040ED017B836A8383E08C9386
:101AC00087E0220F331F441F551F8A95D1F75064BA
:101AD000FD012483358346835783DF91CF91089599
:101AE000CF93DF93DC01FB019C91923008F446C058
:101AF0008081823008F442C0943049F4ED0169815C
:101B0000843079F5818190E0861B91093CC0843056
:101B100021F0923031F48230A1F18181882371F576
:101B20002AC0ED0169818230E1F081816817C9F432
:101B3000ED012A813B8182819381821793078CF08A
:101B400028173907B4F0ED018C819D81AE81BF81EA
:101B50002481358146815781281739074A075B0759
:101B600018F4662341F40AC082179307A407B50747
:101B700040F4662319F48FEF9FEF05C081E090E0F9
:101B800002C080E090E0DF91CF91089597FB092E8D
:101B900007260AD077FD04D00CD006D000201AF416
:101BA000709561957F4F0895F6F7909581959F4FB9
:101BB0000895AA1BBB1B51E107C0AA1FBB1FA61794
:101BC000B70710F0A61BB70B881F991F5A95A9F7E6
:101BD00080959095BC01CD0108952F923F924F9230
:101BE0005F926F927F928F929F92AF92BF92CF92AD
:101BF000DF92EF92FF920F931F93CF93DF93CDB7B6
:101C0000DEB7CA1BDB0B0FB6F894DEBF0FBECDBF2D
:101C100009942A88398848885F846E847D848C84FE
:101C20009B84AA84B984C884DF80EE80FD800C8107
:101C30001B81AA81B981CE0FD11D0FB6F894DEBFEA
:0A1C40000FBECDBFED010895FFCFE8
:101C4A00020000000000000000000102020303037A
:101C5A000304040404040404040505050505050534
:101C6A000505050505050505050606060606060613
:101C7A0006060606060606060606060606060606FA
:101C8A0006060606060606060607070707070707E3
:101C9A0007070707070707070707070707070707CA
:101CAA0007070707070707070707070707070707BA
:101CBA0007070707070707070707070707070707AA
:101CCA000707070707070707070808080808080893
:101CDA00080808080808080808080808080808087A
:101CEA00080808080808080808080808080808086A
:101CFA00080808080808080808080808080808085A
:101D0A000808080808080808080808080808080849
:101D1A000808080808080808080808080808080839
:101D2A000808080808080808080808080808080829
:101D3A000808080808080808080808080808080819
:0A1D4A000808080808080808080047
:00000001FF
