:1000000012C02CC02BC02AC029C028C027C026C0BF
:1000100025C024C023C022C021C020C01FC01EC0D4
:100020001DC01CC01BC011241FBECFE5D4E0DEBF25
:10003000CDBF10E0A0E6B0E0E8E7FCE102C005902B
:100040000D92AA36B107D9F710E0AAE6B0E001C0D8
:100050001D92AC38B107E1F75CD80DCED1CFCF936C
:10006000DF93CDB7DEB721970FB6F894DEBF0FBE92
:10007000CDBF8983A2E3B0E0E2E3F0E090818FE7B7
:1000800089238C93A2E3B0E0E2E3F0E080818F7DEE
:100090008C93A2E3B0E0E2E3F0E0808180648C9393
:1000A000A8E3B0E0E8E3F0E0808181608C9389818F
:1000B000882F90E085D58981882F90E09CD5219666
:1000C0000FB6F894DEBF0FBECDBFDF91CF9108957C
:1000D000CF93DF93CDB7DEB721970FB6F894DEBF8D
:1000E0000FBECDBF8983A2E3B0E0E2E3F0E0808100
:1000F00080688C93A2E3B0E0E2E3F0E0808180626C
:100100008C93A2E3B0E0E2E3F0E080818F7B8C93FC
:10011000A8E3B0E0E8E3F0E080818E7F8C938981F2
:10012000882F90E04DD58981882F90E064D5219665
:100130000FB6F894DEBF0FBECDBFDF91CF9108950B
:10014000CF93DF93CDB7DEB780E090E039D580E084
:1001500090E051D5DF91CF910895CF93DF93CDB744
:10016000DEB72B970FB6F894DEBF0FBECDBFA6E269
:10017000B0E0E6E2F0E0808187608C93A7E2B0E037
:10018000E7E2F0E0808180648C93A6E2B0E0E6E2F2
:10019000F0E0808180688C9383E08B8785E08A879C
:1001A000198683E0888783E08F8385E08E8383E0F0
:1001B0008D8381E08C8384E08B831A8282E0898343
:1001C0008B85882F90E0982F8827990F990F25E02D
:1001D00030E0B901F2DCCB019093730080937200A0
:1001E0008A85882F90E0982F8827990F990F25E00E
:1001F00030E0B901E2DCCB01909379008093780084
:100200008985882F90E0982F8827990F990F25E0EE
:1002100030E0B901D2DCCB0190937500809374007B
:100220008885882F90E0982F8827990F990F25E0CF
:1002300030E0B901C2DCCB0190937B0080937A005F
:100240008F81882F90E0982F8827990F990F25E0AC
:1002500030E0B901B2DCCB0190936B0080936A006F
:100260008E81882F90E0982F8827990F990F25E08D
:1002700030E0B901A2DCCB0190938B0080938A001F
:100280008A81882F90E0982F8827990F990F25E071
:1002900030E0B90192DCCB01909389008093880013
:1002A0008981882F90E0982F8827990F990F25E052
:1002B00030E0B90182DCCB01909387008093860007
:1002C0008D81882F90E0982F8827990F990F25E02E
:1002D00030E0B90172DCCB019093830080938200FF
:1002E0008C81882F90E0982F8827990F990F25E00F
:1002F00030E0B90162DCCB01909371008093700013
:100300008B81882F90E0982F8827990F990F25E0EF
:1003100030E0B90152DCCB0190936D0080936C000A
:100320002B960FB6F894DEBF0FBECDBFDF91CF91F5
:100330000895CF93DF93CDB7DEB721970FB6F8942A
:10034000DEBF0FBECDBF8983898187708983A7E215
:10035000B0E0E7E2F0E090818981892B8C93A6E2FE
:10036000B0E0E6E2F0E0808180628C93A6E2B0E04B
:10037000E6E2F0E0808180648C93E6E2F0E0808148
:10038000882F90E0807190700097B9F3A6E2B0E0FA
:10039000E6E2F0E0808180618C93E4E2F0E080812D
:1003A000918121960FB6F894DEBF0FBECDBFDF91CD
:1003B000CF910895CF93DF93CDB7DEB722970FB6D5
:1003C000F894DEBF0FBECDBF85E0B3DF909377001A
:1003D00080937600209170003091710080917600BA
:1003E000909177002817390780F42091760030919A
:1003F000770080916C0090916D002817390728F4E0
:1004000081E090E09A83898302C01A8219828981EF
:100410009A8122960FB6F894DEBF0FBECDBFDF9152
:10042000CF910895CF93DF93CDB7DEB722970FB664
:10043000F894DEBF0FBECDBF90DE85E07ADF9093EB
:10044000770080937600209176003091770080913C
:100450007000909171002817390728F481E090E02E
:100460009A83898302C01A82198289819A8122968D
:100470000FB6F894DEBF0FBECDBFDF91CF910895C8
:10048000CF93DF93CDB7DEB722970FB6F894DEBFD8
:100490000FBECDBF62DE31D385E04BDF9093770096
:1004A00080937600209176003091770080918200D1
:1004B000909183008217930728F481E090E09A835B
:1004C000898302C01A82198289819A8122960FB685
:1004D000F894DEBF0FBECDBFDF91CF910895CF93CB
:1004E000DF93CDB7DEB722970FB6F894DEBF0FBE0D
:1004F000CDBF33DE85E01DDF9093770080937600DB
:100500002091760030917700809182009091830055
:100510002817390728F481E090E09A83898302C084
:100520001A82198289819A8122960FB6F894DEBFC9
:100530000FBECDBFDF91CF910895CF93DF93CDB79D
:10054000DEB722970FB6F894DEBF0FBECDBF05DE33
:1005500084E0EFDE90937F0080937E0020917E0008
:1005600030917F00809182009091830082179307E1
:1005700028F481E090E09A83898302C01A8219826C
:1005800089819A8122960FB6F894DEBF0FBECDBF47
:10059000DF91CF910895CF93DF93CDB7DEB7229748
:1005A0000FB6F894DEBF0FBECDBF84E0C2DE9093DD
:1005B0007F0080937E0020917E0030917F008091AB
:1005C0008200909183002817390728F481E090E099
:1005D0009A83898302C01A82198289819A8122961C
:1005E0000FB6F894DEBF0FBECDBFDF91CF91089557
:1005F000CF93DF93CDB7DEB722970FB6F894DEBF67
:100600000FBECDBFAADD83E094DE9093850080937A
:100610008400209184003091850080918200909127
:1006200083008217930728F481E090E09A838983FE
:1006300002C01A82198289819A8122960FB6F89493
:10064000DEBF0FBECDBFDF91CF910895CF93DF9373
:10065000CDB7DEB722970FB6F894DEBF0FBECDBF81
:100660007CDD83E066DE909385008093840020919A
:10067000840030918500809182009091830028173A
:10068000390728F481E090E09A83898302C01A82B6
:10069000198289819A8122960FB6F894DEBF0FBE27
:1006A000CDBFDF91CF910895CF93DF93CDB7DEB764
:1006B00022970FB6F894DEBF0FBECDBF84E039DEBF
:1006C00090937F0080937E0083E033DE90938500DB
:1006D0008093840020917E0030917F008091820081
:1006E000909183002817390780F42091840030917D
:1006F000850080918200909183002817390728F4A3
:1007000081E090E09A83898302C01A8219828981EC
:100710009A8122960FB6F894DEBF0FBECDBFDF914F
:10072000CF910895CF93DF93CDB7DEB722970FB661
:10073000F894DEBF0FBECDBF84E0FBDD90937F0059
:1007400080937E0083E0F5DD9093850080938400A4
:1007500020917E0030917F008091820090918300F3
:100760002817390780F0209184003091850080910E
:100770008200909183002817390728F081E090E0EB
:100780009A83898302C01A82198289819A8122966A
:100790000FB6F894DEBF0FBECDBFDF91CF910895A5
:1007A000CF93DF93CDB7DEB784E0C3DD90937F00B6
:1007B00080937E0083E0BDDD90938500809384006C
:1007C0000EC084E0B6DD90937F0080937E0083E0CE
:1007D000B0DD909385008093840080E579DC2091E2
:1007E0007E0030917F00809182009091830082177B
:1007F000930758F020918400309185008091820009
:100800009091830082179307E0F6DF91CF910895CE
:10081000CF93DF93CDB7DEB784E08BDD90937F007D
:1008200080937E0083E085DD909385008093840033
:100830000EC084E07EDD90937F0080937E0083E095
:1008400078DD909385008093840080E508DC20911A
:100850007E0030917F008091820090918300281764
:10086000390758F0209184003091850080918200F2
:100870009091830028173907E0F6DF91CF91089512
:10088000CF93DF93CDB7DEB784E053DD90937F0045
:1008900080937E0083E04DDD9093850080938400FB
:1008A0000EC084E046DD90937F0080937E0083E05D
:1008B00040DD909385008093840088E7D0DB209111
:1008C0007E0030917F0080918200909183002817F4
:1008D000390758F42091840030918500809182007E
:1008E0009091830082179307E0F2DF91CF910895F2
:1008F000CF93DF93CDB7DEB784E01BDD90937F000D
:1009000080937E0083E015DD9093850080938400C2
:1009100020917E0030917F00809182009091830031
:100920002817390778F42091840030918500809150
:100930008200909183002817390720F481E090E02D
:10094000A0D203C081E090E0D5D2DF91CF9108958D
:10095000CF93DF93CDB7DEB722970FB6F894DEBF03
:100960000FBECDBF82E0E5DC90937D0080937C00DC
:10097000209170003091710080917C0090917D00F9
:100980002817390780F420917C0030917D008091F8
:100990006C0090916D002817390728F481E090E0F1
:1009A0009A83898302C01A82198289819A81229648
:1009B0000FB6F894DEBF0FBECDBFDF91CF91089583
:1009C000CF93DF93CDB7DEB722970FB6F894DEBF93
:1009D0000FBECDBF82E0ADDC90937D0080937C00A4
:1009E00020917C0030917D00809170009091710089
:1009F0002817390728F481E090E09A83898302C0A0
:100A00001A82198289819A8122960FB6F894DEBFE4
:100A10000FBECDBFDF91CF910895CF93DF93CDB7B8
:100A2000DEB722970FB6F894DEBF0FBECDBF81E0D0
:100A300080DC909381008093800020916A00309147
:100A40006B0080918000909181002817390780F415
:100A5000209180003091810080918A0090918B00DC
:100A60002817390728F481E090E09A83898302C02F
:100A70001A82198289819A8122960FB6F894DEBF74
:100A80000FBECDBFDF91CF910895CF93DF93CDB748
:100A9000DEB722970FB6F894DEBF0FBECDBF80E061
:100AA00048DC90936F0080936E0020918800309115
:100AB000890080916E0090916F002817390780F4AB
:100AC00020916E0030916F00809186009091870098
:100AD0002817390728F481E090E09A83898302C0BF
:100AE0001A82198289819A8122960FB6F894DEBF04
:100AF0000FBECDBFDF91CF910895CF93DF93CDB7D8
:100B0000DEB72BDBDF91CF910895CF93DF93CDB785
:100B1000DEB7A1E3B0E0E1E3F0E0808180688C9390
:100B2000A1E3B0E0E1E3F0E0808180628C93A1E397
:100B3000B0E0E1E3F0E0808180648C93A7E3B0E073
:100B4000E7E3F0E0808181608C9303D0DF91CF9167
:100B50000895CF93DF93CDB7DEB7EFE4F0E081EAFD
:100B60008083EEE4F0E08AE08083EDE4F0E0108240
:100B7000ECE4F0E01082E7E4F0E01082E6E4F0E07C
:100B80001082EBE4F0E01082EAE4F0E08DE780838D
:100B9000E9E4F0E01082E8E4F0E08DE78083A7E389
:100BA000B0E0E7E3F0E0808182608C93A7E3B0E0FF
:100BB000E7E3F0E0808184608C93DF91CF9108952A
:100BC000CF93DF93CDB7DEB721970FB6F894DEBF92
:100BD0000FBECDBF8983E8E4F0E08981882F90E0E3
:100BE0009183808321960FB6F894DEBF0FBECDBFF0
:100BF000DF91CF910895CF93DF93CDB7DEB72197E3
:100C00000FB6F894DEBF0FBECDBF8983EAE4F0E0F3
:100C10008981882F90E09183808321960FB6F89484
:100C2000DEBF0FBECDBFDF91CF910895CF93DF938D
:100C3000CDB7DEB760970FB6F894DEBF0FBECDBF5D
:100C4000888B1F8671C080E090E0AAE7B3E48B87B1
:100C50009C87AD87BE8720E030E04AE753E46B8590
:100C60007C858D859E8526D4DC01CB018F8398877A
:100C7000A987BA8720E030E040E85FE36F8178859C
:100C800089859A8573D588230CF005C081E090E0B2
:100C90009E838D833CC020E03FEF4FE757E46F8198
:100CA000788589859A8500D518160CF027C020E034
:100CB00030E040E251E46B857C858D859E85FAD3DA
:100CC000DC01CB01BC01CD013DD2DC01CB019E8317
:100CD0008D830FC089E190E09C838B838B819C8105
:100CE0000197F1F79C838B838D819E8101979E8371
:100CF0008D838D819E81009769F713C06F81788500
:100D000089859A851FD2DC01CB019E838D838D81DD
:100D10009E819A83898389819A810197F1F79A83C9
:100D200089838F858F5F8F879F858889981708F4BF
:100D30008ACF60960FB6F894DEBF0FBECDBFDF91AD
:100D4000CF910895CF93DF93CDB7DEB761970FB6FC
:100D5000F894DEBF0FBECDBF898B8989282F30E084
:100D600088EE93E0AC01249FC001259F900D349F35
:100D7000900D11242AEF30E0B9011FD7CB01888BE9
:100D80001F8671C080E090E0AAE7B3E48B879C8760
:100D9000AD87BE8720E030E04AE753E46B857C8571
:100DA0008D859E8587D3DC01CB018F839887A987AA
:100DB000BA8720E030E040E85FE36F81788589857D
:100DC0009A85D4D488230CF005C081E090E09E83FE
:100DD0008D833CC020E03FEF4FE757E46F8178857B
:100DE00089859A8561D418160CF027C020E030E080
:100DF00040E251E46B857C858D859E855BD3DC016B
:100E0000CB01BC01CD019ED1DC01CB019E838D8342
:100E10000FC089E190E09C838B838B819C8101973B
:100E2000F1F79C838B838D819E8101979E838D83B7
:100E30008D819E81009769F713C06F8178858985C0
:100E40009A8580D1DC01CB019E838D838D819E812B
:100E50009A83898389819A810197F1F79A8389839B
:100E60008F858F5F8F879F858889981708F48ACF31
:100E700061960FB6F894DEBF0FBECDBFDF91CF9164
:100E80000895CF93DF93CDB7DEB721970FB6F894CF
:100E9000DEBF0FBECDBF898353D9A2E3B0E0E2E34A
:100EA000F0E090818FE789238C93A2E3B0E0E2E346
:100EB000F0E0808180628C93A2E3B0E0E2E3F0E0B6
:100EC00080818F7B8C93A8E3B0E0E8E3F0E0808141
:100ED00081608C9386E974DE86E98DDE8981A6DEE9
:100EE0002FD921960FB6F894DEBF0FBECDBFDF918C
:100EF000CF910895CF93DF93CDB7DEB721970FB68B
:100F0000F894DEBF0FBECDBF89831AD9A2E3B0E04B
:100F1000E2E3F0E0808180688C93A2E3B0E0E2E35A
:100F2000F0E080818F7D8C93A2E3B0E0E2E3F0E01B
:100F3000808180648C93A8E3B0E0E8E3F0E08081F6
:100F40008E7F8C9386E93CDE86E955DE89816EDEF4
:100F5000F7D821960FB6F894DEBF0FBECDBFDF9154
:100F6000CF910895CF93DF93CDB7DEB784E677D8DE
:100F700080916000882389F4AAD0009719F084E654
:100F80006ED80BC0A4D0009741F44CDA882319F036
:100F900081E0B0DF02C081E074DFDF91CF9108957E
:100FA000CF93DF93CDB7DEB770D0009721F081E00B
:100FB0008093600005C08BD0009711F01092600004
:100FC000DF91CF910895CF93DF93CDB7DEB75DDD8D
:100FD000882329F180916000882389F08DE28ADFDF
:100FE00083E03DD808C08AE04CDF81E038D84DD09E
:100FF0000097C9F3B7DFDED98823C9F710C08DE2A7
:1010000040DF83E02CD808C08AE074DF81E027D875
:101010005ED00097C9F3A6DFBEDA8823C9F7DF9157
:10102000CF910895CF93DF93CDB7DEB7F6DC882359
:1010300049F180916000882399F081E049D884EFDC
:10104000F5DD85E557DF07C081E009D8A4DA8823FC
:1010500011F08AE04FDF19D00097B1F383DF12C09F
:1010600081E036D884EFE2DD85E50BDF07C081E063
:10107000F6D7A0D9882311F08AE03CDF28D000976A
:10108000B1F370DFDF91CF910895CF93DF93CDB7A8
:10109000DEB722970FB6F894DEBF0FBECDBF7BDA66
:1010A000882341F0A5DA882329F081E090E09A8333
:1010B000898302C01A82198289819A8122960FB689
:1010C000F894DEBF0FBECDBFDF91CF910895CF93CF
:1010D000DF93CDB7DEB722970FB6F894DEBF0FBE11
:1010E000CDBF68D9882341F033DC882329F081E023
:1010F00090E09A83898302C01A82198289819A8139
:1011000022960FB6F894DEBF0FBECDBFDF91CF9110
:101110000895CF93DF93CDB7DEB7EFDCF6DC02C0E6
:1011200084E69DD7DCD98823D9F70AD802C084E6A3
:10113000CFD703DA8823D9F703D880E090E0DF9196
:10114000CF910895EF92FF920F931F937B018C0133
:1011500020E030E040E05FE4D8D288236CF020E06B
:1011600030E040E05FE4C801B70152D130D36050B5
:1011700070408040904803C0C801B70128D31F9138
:101180000F91FF90EF900895A0E0B0E0E9ECF8E057
:101190003DC52C015B01FA01DC019C91923008F401
:1011A00032C1EB018881823008F42CC1943071F493
:1011B000843009F028C1F20191818981981709F4DE
:1011C00022C111E6412E10E0512E1DC1843009F4D8
:1011D00019C18230A9F4923009F015C1CA01A201E7
:1011E00028E0DA010D90AD01EC010992CE01215009
:1011F000C1F7E5018981E20199818923818300C1D9
:10120000923009F4FFC0E201CA80DB80EB018A81E1
:101210009B81E2012C813D814E815F81EB01EC805D
:10122000FD800E811F81B601681B790BDB0177FF02
:1012300003C0709561957F4F603271050CF05DC001
:101240001A161B065CF566247724430181E090E0C2
:10125000A0E0B0E0062E04C0880F991FAA1FBB1F94
:101260000A94D2F70197A109B1098E219F21A023E9
:10127000B1230097A105B10529F0B1E06B2E712CC7
:10128000812C912C04C016950795F794E7946A95E4
:10129000D2F7E628F728082919293BC0AB2BC9F15A
:1012A000C60ED71E66247724430181E090E0A0E0BB
:1012B000B0E0062E04C0880F991FAA1FBB1F0A9416
:1012C000D2F70197A109B10982239323A423B5235F
:1012D0000097A105B10529F0A1E06A2E712C812C9F
:1012E000912C04C056954795379527956A95D2F766
:1012F00026293729482959290CC08C159D0534F019
:101300006C0120E030E040E050E003C0EE24FF2418
:101310008701E2019981E5018981981709F443C0A9
:10132000992339F0E21AF30A040B150BA80197016F
:1013300004C02E193F09400B510B57FD08C0118204
:10134000D382C28224833583468357831DC081E0C4
:101350008183D382C28288279927DC01821B930B69
:10136000A40BB50B84839583A683B7830DC0220F8E
:10137000331F441F551F248335834683578382813F
:10138000938101979383828324813581468157819C
:10139000DA01C9010197A109B1098F5F9F4FAF4FD2
:1013A000BF4328F30BC09183D382C2822E0D3F1D11
:1013B000401F511F248335834683578383E08083F6
:1013C00024813581468157815523D4F4C901AA2748
:1013D00097FDA095BA2F81709070A070B07056954F
:1013E000479537952795822B932BA42BB52B848378
:1013F0009583A683B78382819381019693838283A9
:101400002F0101C02501C201E0E1CDB7DEB71AC44A
:10141000A0E2B0E0EDE0FAE003C469837A838B8355
:101420009C832D833E834F83588709E0E02EF12C67
:10143000EC0EFD1EB701CE010196F9D28E010F5EB2
:101440001F4FB801CE010596F2D28A8991E0892713
:101450008A8BAE01475E5F4FB801C70195DE07D2A8
:10146000E6E0A096F9C3A0E2B0E0E8E3FAE0D8C372
:1014700069837A838B839C832D833E834F83588734
:1014800089E0E82EF12CEC0EFD1EB701CE0101968D
:10149000CED28E010F5E1F4FB801CE010596C7D286
:1014A000AE01475E5F4FB801C7016EDEE0D1E6E0F6
:1014B000A096D2C3A0E2B0E0EFE5FAE0A7C369834B
:1014C0007A838B839C832D833E834F83588799E057
:1014D000E92EF12CEC0EFD1EB701CE010196A7D22C
:1014E0008E010F5E1F4FB801CE010596A0D29985DF
:1014F000923088F089898230C0F0943019F48230BB
:1015000029F009C0843029F4923079F461E670E062
:10151000C6C0923041F420E09A858A89981321E070
:101520002A87B701BCC0823041F420E09A858A89BD
:10153000981321E02A8BB801B2C0CD84DE84EF84F9
:10154000F8880D891E892F89388D882499245401A3
:1015500040E050E060E070E0442455243201E0E0D7
:10156000F0E0C60181709070892BD9F0800E911E39
:10157000A21EB31EDB01CA01840D951DA61DB71D59
:1015800040E050E060E070E080169106A206B306ED
:1015900020F441E050E060E070E0480F591F6A1FFE
:1015A0007B1F440C551C661C771C37FF08C081E06C
:1015B00090E0A0E0B0E0482A592A6A2A7B2A3196B6
:1015C000E032F10549F0000F111F221F331FF6947E
:1015D000E794D794C794C5CF8B899C892B853C858C
:1015E000820F931F02969C8F8B8F1A8E9A858A8901
:1015F000981711F081E08A8F2B8D3C8D17C0CA019E
:1016000081709070892B61F0B694A7949794879419
:1016100080E090E0A0E0B0E8882A992AAA2ABB2AB4
:1016200076956795579547952F5F3F4F77FDE7CFA5
:10163000C9010BC0440F551F661F771FB7FC4160DF
:10164000880C991CAA1CBB1C01974030A0E05A07CB
:10165000A0E06A07A0E47A0768F39C8F8B8FDB0118
:10166000CA018F779070A070B07080349105A10589
:10167000B10561F447FD0AC081149104A104B104CD
:1016800029F0405C5F4F6F4F7F4F40784D8F5E8FEA
:101690006F8F78A383E0898FBE01675E7F4FCB0198
:1016A000E6D0E0E1A096CEC2A8E1B0E0E9E5FBE03B
:1016B000B7C269837A838B839C832D833E834F8358
:1016C000588789E0E82EF12CEC0EFD1EB701CE0103
:1016D0000196ADD18E010F5E1F4FB801CE01059668
:1016E000A6D18985823058F08989823040F0B801CE
:1016F000C7010DD2282F332727FD309502C02FEFC9
:101700003FEFC901E6E06896A7C2A8E1B0E0EAE8C9
:10171000FBE086C269837A838B839C832D833E831F
:101720004F83588789E0E82EF12CEC0EFD1EB7019F
:10173000CE0101967CD18E010F5E1F4FB801CE0104
:10174000059675D18985823058F08989823040F0BC
:10175000B801C701DCD1282F332727FD309502C0FF
:101760002FEF3FEFC901E6E0689676C2A8E1B0E04E
:10177000EBEBFBE055C269837A838B839C832D83DB
:101780003E834F83588789E0E82EF12CEC0EFD1E36
:10179000B701CE0101964BD18E010F5E1F4FB801EC
:1017A000CE01059644D18985823058F089898230EE
:1017B00040F0B801C701ABD1282F332727FD309562
:1017C00002C021E030E0C901E6E0689645C2ACE025
:1017D000B0E0ECEEFBE028C269837A838B839C83C4
:1017E000BE016B5F7F4FCE01019621D18D8182308A
:1017F000A9F1823098F1843021F48E81882359F444
:101800000FC02F81388537FD29C06E812F313105FA
:1018100064F0662329F020E030E040E050E822C088
:101820002FEF3FEF4FEF5FE71DC08EE190E0821B8F
:10183000930B29853A854B855C8504C05695479561
:10184000379527958A95D2F7662361F05095409594
:10185000309521953F4F4F4F5F4F04C020E030E05F
:1018600040E050E0CA01B901E2E02C96F9C19F9234
:10187000AF92BF92CF92DF92EF92FF920F931F939E
:10188000EE24FF248701FC012481358146815781A4
:1018900091808081823010F44061A2C0843009F4CC
:1018A0009BC0823029F420E030E040E050E005C0E9
:1018B000211531054105510519F4E0E0F0E092C031
:1018C000828193816FEF823896070CF05AC062E8EC
:1018D0007FEF681B790B6A3171052CF020E030E056
:1018E00040E050E02AC0AA24BB24650181E090E0DA
:1018F000A0E0B0E0062E04C0880F991FAA1FBB1FEE
:101900000A94D2F70197A109B10982239323A42352
:10191000B5230097A105B10529F071E0A72EB12CE0
:10192000C12CD12C04C056954795379527956A95BB
:10193000D2F72A293B294C295D29DA01C9018F7781
:101940009070A070B07080349105A105B10539F494
:1019500027FF09C0205C3F4F4F4F5F4F04C0215C01
:101960003F4F4F4F5F4F80E090E0203060E0360700
:1019700060E0460760E4560710F081E090E0FC016B
:1019800023C08038910544F5FC01E158FF4FDA018E
:10199000C9018F779070A070B07080349105A10557
:1019A000B10539F427FF09C0205C3F4F4F4F5F4F0F
:1019B00004C0215C3F4F4F4F5F4F57FF05C0569506
:1019C000479537952795319687E0569547953795F2
:1019D00027958A95D1F706C020E030E040E050E03E
:1019E000EFEFF0E0E22EF32E942F9F77802F807898
:1019F000892B9E2F9795992797958F77082F092BDD
:101A00009E2F9695812F8078892B9794992497946F
:101A10008F77182F1929C801B7011F910F91FF90D7
:101A2000EF90DF90CF90BF90AF909F900895CF93AD
:101A3000DF93FC01DB01208131819281492F4F77B7
:101A400050E0991F9927991F8381E82FEE0FE92B0A
:101A50006E2F70E0881F8827881FED018983EE2391
:101A600071F5211531054105510511F482E02FC0B2
:101A70006E577040FD017383628367E0220F331F4E
:101A8000441F551F6A95D1F783E08C930AC0220F3B
:101A9000331F441F551FED018A819B8101979B8352
:101AA0008A832030E0E03E07E0E04E07E0E45E0796
:101AB00070F3ED012C833D834E835F8325C0EF3FA0
:101AC00079F4211531054105510519F484E08C9311
:101AD0001BC044FF03C081E08C9311C01C920FC057
:101AE0006F577040ED017B836A8383E08C9387E0BE
:101AF000220F331F441F551F8A95D1F75064FD01F3
:101B00002483358346835783DF91CF910895CF9304
:101B1000DF93DC01FB019C91923008F446C0808188
:101B2000823008F442C0943049F4ED016981843078
:101B300079F5818190E0861B91093CC0843021F0C9
:101B4000923031F48230A1F18181882371F52AC06D
:101B5000ED0169818230E1F081816817C9F4ED01FE
:101B60002A813B8182819381821793078CF0281709
:101B70003907B4F0ED018C819D81AE81BF81248154
:101B8000358146815781281739074A075B0718F4C2
:101B9000662341F40AC082179307A407B50740F4EF
:101BA000662319F48FEF9FEF05C081E090E002C03B
:101BB00080E090E0DF91CF91089597FB092E0726F2
:101BC0000AD077FD04D00CD006D000201AF470950E
:101BD00061957F4F0895F6F7909581959F4F0895F1
:101BE000AA1BBB1B51E107C0AA1FBB1FA617B70743
:101BF00010F0A61BB70B881F991F5A95A9F780955F
:101C00009095BC01CD0108952F923F924F925F9223
:101C10006F927F928F929F92AF92BF92CF92DF92FC
:101C2000EF92FF920F931F93CF93DF93CDB7DEB761
:101C3000CA1BDB0B0FB6F894DEBF0FBECDBF0994F5
:101C40002A88398848885F846E847D848C849B844C
:101C5000AA84B984C884DF80EE80FD800C811B815A
:101C6000AA81B981CE0FD11D0FB6F894DEBF0FBE89
:081C7000CDBFED010895FFCF87
:0A1C78000200000000000000000060
:00000001FF
