:1000000012C02CC02BC02AC029C028C027C026C0BF
:1000100025C024C023C022C021C020C01FC01EC0D4
:100020001DC01CC01BC011241FBECFE5D4E0DEBF25
:10003000CDBF10E0A0E6B0E0E6E1F2E002C005903E
:100040000D92A036B107D9F710E0A0E6B0E001C0EC
:100050001D92A036B107E1F702D0DCC0D1CFCF931B
:10006000DF93CDB7DEB726970FB6F894DEBF0FBE8D
:10007000CDBFA1E3B0E0E1E3F0E0808180688C9344
:10008000A1E3B0E0E1E3F0E0808180628C93A1E342
:10009000B0E0E1E3F0E0808180648C93A7E3B0E01E
:1000A000E7E3F0E0808181608C93A7E3B0E0E7E3D1
:1000B000F0E0808184608C93A7E3B0E0E7E3F0E0B8
:1000C000808182608C93E2E3F0E08081E2E3F0E003
:1000D0001082E2E3F0E08081E2E3F0E01082A2E34C
:1000E000B0E0E2E3F0E0808180648C93A8E3B0E0CC
:1000F000E8E3F0E0808181608C933FD0A8E3B0E03A
:10010000E8E3F0E0808182608C93A8E3B0E0E8E36C
:10011000F0E0808184608C938AE790E09C838B83FD
:1001200083E393E09A83898384E043D09E838D8325
:100130002D813E8189819A818217930778F4A8E303
:10014000B0E0E8E3F0E080818D7F8C93A8E3B0E03D
:10015000E8E3F0E080818B7F8C93E6CFA8E3B0E00A
:10016000E8E3F0E0808182608C93A8E3B0E0E8E30C
:10017000F0E0808184608C93D7CFCF93DF93CDB7AD
:10018000DEB7A6E2B0E0E6E2F0E0808187608C9323
:10019000A7E2B0E0E7E2F0E0808180648C93A6E221
:1001A000B0E0E6E2F0E0808180688C93DF91CF914F
:1001B0000895CF93DF93CDB7DEB721970FB6F894AC
:1001C000DEBF0FBECDBF8983898187708983A7E297
:1001D000B0E0E7E2F0E090818981892B8C93A6E280
:1001E000B0E0E6E2F0E0808180628C93A6E2B0E0CD
:1001F000E6E2F0E0808180648C93E4E2F0E08081CC
:10020000918121960FB6F894DEBF0FBECDBFDF916E
:06021000CF910895FFCF1D
:00000001FF
