:100000000C9446000C9465000C9465000C946500FB
:100010000C9465000C9465000C9465000C946500CC
:100020000C9465000C9465000C9465000C946500BC
:100030000C9465000C9465000C9465000C946500AC
:100040000C9465000C9465000C9465000C9465009C
:100050000C9465000C9465000C9465000C9465008C
:100060000C9465000C9465000C9465000C9465007C
:100070000C9465000C9465000C9465000C9465006C
:100080000C9465000C9465000C94650011241FBE4F
:10009000CFEFD0E1DEBFCDBF11E0A0E0B1E0E0EFF7
:1000A000F1E000E00BBF02C007900D92A030B10755
:1000B000D9F711E0A0E0B1E001C01D92A030B10776
:1000C000E1F70E94B4000C94F7000C940000CF9369
:1000D000DF93CDB7DEB7A6E2B0E0E6E2F0E08081E4
:1000E00087608C93A7E2B0E0E7E2F0E08081806473
:1000F0008C93A6E2B0E0E6E2F0E0808180688C9329
:10010000DF91CF910895CF93DF93CDB7DEB72197DD
:100110000FB6F894DEBF0FBECDBF8983898187708B
:100120008983A7E2B0E0E7E2F0E090818981892B42
:100130008C93A6E2B0E0E6E2F0E0808180628C93EE
:10014000A6E2B0E0E6E2F0E0808180648C93E4E235
:10015000F0E08081918121960FB6F894DEBF0FBE4A
:10016000CDBFDF91CF910895CF93DF93CDB7DEB7A9
:1001700026970FB6F894DEBF0FBECDBFA7E3B0E061
:10018000E7E3F0E0808182608C93E8E3F0E0808137
:10019000E8E3F0E010820E9467008AE790E09C8329
:1001A0008B838BEE91E09A83898380E00E948300A9
:1001B0009E838D832B813C818D819E8128173907F9
:1001C00078F42D813E8189819A812817390740F47E
:1001D000A8E3B0E0E8E3F0E0808182608C93E5CFB3
:1001E000E8E3F0E08081E8E3F0E01082DECFFFCFCB
:00000001FF
