:1000000012C02CC02BC02AC029C028C027C026C0BF
:1000100025C024C023C022C021C020C01FC01EC0D4
:100020001DC01CC01BC011241FBECFE5D4E0DEBF25
:10003000CDBF11E0A0E6B0E0E6EAFDE002C0059029
:100040000D92A836B107D9F711E0A8E6B1E001C0DA
:100050001D92A836B107E1F7D9D0A4C6D1CFCF936E
:10006000DF93CDB7DEB7EFE4F0E081EA8083EEE422
:10007000F0E08AE08083EDE4F0E01082ECE4F0E070
:100080001082E7E4F0E01082E6E4F0E01082EBE4B6
:10009000F0E01082EAE4F0E08DE78083E9E4F0E04C
:1000A0001082E8E4F0E08DE78083A7E3B0E0E7E3C7
:1000B000F0E0808188608C93A7E3B0E0E7E3F0E0B4
:1000C000808184608C93A7E3B0E0E7E3F0E0808177
:1000D00082608C93A1E3B0E0E1E3F0E0808180688E
:1000E0008C93A1E3B0E0E1E3F0E0808180628C9347
:1000F000A1E3B0E0E1E3F0E0808180648C93A7E3CA
:10010000B0E0E7E3F0E0808181608C93A2E3B0E0AF
:10011000E2E3F0E080818C93A2E3B0E0E2E3F0E080
:1001200080818C93A2E3B0E0E2E3F0E08081806420
:100130008C93A8E3B0E0E8E3F0E0808181608C93E9
:10014000A8E3B0E0E8E3F0E0808188608C9341D0E0
:10015000DF91CF9108950F931F93CF93DF93CDB786
:10016000DEB721970FB6F894DEBF0FBECDBF8983EF
:100170000AE410E08981882F90E0AA2797FDA095D6
:10018000BA2FBC01CD013AD3DC01CB0123E333E329
:1001900043E35FE3BC01CD0106D2DC01CB01BC012E
:1001A000CD0149D0DC01CB01F80191838083E8E4E3
:1001B000F0E08981882F90E09183808321960FB6AB
:1001C000F894DEBF0FBECDBFDF91CF911F910F918D
:1001D0000895CF93DF93CDB7DEB722970FB6F8948B
:1001E000DEBF0FBECDBF80E89CE09A838983898102
:1001F0009A810197F1F79A83898322960FB6F89432
:10020000DEBF0FBECDBFDF91CF910895CF93DF93B7
:10021000CDB7DEB721970FB6F894DEBF0FBECDBFC6
:1002200019821DDF02C089E9898389818530D8F36D
:10023000898191DFFACFEF92FF920F931F937B0199
:100240008C0120E030E040E05FE4A7D288236CF02E
:1002500020E030E040E05FE4C801B70152D128D38C
:10026000605070408040904803C0C801B70120D35F
:100270001F910F91FF90EF900895A0E0B0E0E2E4AD
:10028000F1E05BC52C015B01FA01DC019C9192302D
:1002900008F432C1EB018881823008F42CC194301B
:1002A00071F4843009F028C1F20191818981981795
:1002B00009F422C110E6412E10E0512E1DC18430F8
:1002C00009F419C18230A9F4923009F015C1CA01AC
:1002D000A20128E0DA010D90AD01EC010992CE01F6
:1002E0002150C1F7E5018981E20199818923818348
:1002F00000C1923009F4FFC0E201CA80DB80EB014B
:100300008A819B81E2012C813D814E815F81EB01DD
:10031000EC80FD800E811F81B601681B790BDB012B
:1003200077FF03C0709561957F4F603271050CF0C7
:100330005DC01A161B065CF566247724430181E034
:1003400090E0A0E0B0E0062E04C0880F991FAA1F1D
:10035000BB1F0A94D2F70197A109B1098E219F21F1
:10036000A023B1230097A105B10529F0B1E06B2EC0
:10037000712C812C912C04C016950795F794E79465
:100380006A95D2F7E628F728082919293BC0AB2B34
:10039000C9F1C60ED71E66247724430181E090E0A0
:1003A000A0E0B0E0062E04C0880F991FAA1FBB1F53
:1003B0000A94D2F70197A109B10982239323A423B8
:1003C000B5230097A105B10529F0A1E06A2E712C93
:1003D000812C912C04C056954795379527956A95A1
:1003E000D2F726293729482959290CC08C159D0593
:1003F00034F06C0120E030E040E050E003C0EE2437
:10040000FF248701E2019981E5018981981709F4A8
:1004100043C0992339F0E21AF30A040B150BA80123
:10042000970104C02E193F09400B510B57FD08C01E
:100430001182D382C28224833583468357831DC0B1
:1004400081E08183D382C28288279927DC01821BC5
:10045000930BA40BB50B84839583A683B7830DC040
:10046000220F331F441F551F248335834683578330
:100470008281938101979383828324813581468190
:100480005781DA01C9010197A109B1098F5F9F4F17
:10049000AF4FBF4328F30BC09183D382C2822E0D8E
:1004A0003F1D401F511F248335834683578383E0BC
:1004B000808324813581468157815523D4F4C90135
:1004C000AA2797FDA095BA2F81709070A070B07088
:1004D0005695479537952795822B932BA42BB52BB3
:1004E00084839583A683B7838281938101969383C6
:1004F00082832F0101C02501C201E0E1CDB7DEB743
:1005000038C4A0E2B0E0E6E8F2E021C469837A836F
:100510008B839C832D833E834F83588709E0E02E95
:10052000F12CEC0EFD1EB701CE0101963ED38E01DB
:100530000F5E1F4FB801CE01059637D38A8991E02F
:1005400089278A8BAE01475E5F4FB801C70195DEF0
:100550004CD2E6E0A09617C4A0E2B0E0E1EBF2E0F6
:10056000F6C369837A838B839C832D833E834F8379
:10057000588789E0E82EF12CEC0EFD1EB701CE0164
:10058000019613D38E010F5E1F4FB801CE01059661
:100590000CD3AE01475E5F4FB801C7016EDE25D2B6
:1005A000E6E0A096F0C3A0E2B0E0E8EDF2E0C5C35B
:1005B00069837A838B839C832D833E834F83588703
:1005C00099E0E92EF12CEC0EFD1EB701CE0101964B
:1005D000ECD28E010F5E1F4FB801CE010596E5D219
:1005E0009985923088F089898230C0F0943019F46E
:1005F000823029F009C0843029F4923079F460E621
:1006000070E0C6C0923041F420E09A858A89981340
:1006100021E02A87B701BCC0823041F420E09A85EE
:100620008A89981321E02A8BB801B2C0CD84DE8478
:10063000EF84F8880D891E892F89388D88249924A4
:10064000540140E050E060E070E044245524320161
:10065000E0E0F0E0C60181709070892BD9F0800E47
:10066000911EA21EB31EDB01CA01840D951DA61D9D
:10067000B71D40E050E060E070E080169106A206F1
:10068000B30620F441E050E060E070E0480F591FED
:100690006A1F7B1F440C551C661C771C37FF08C063
:1006A00081E090E0A0E0B0E0482A592A6A2A7B2A3B
:1006B0003196E032F10549F0000F111F221F331F60
:1006C000F694E794D794C794C5CF8B899C892B85E2
:1006D0003C85820F931F02969C8F8B8F1A8E9A8572
:1006E0008A89981711F081E08A8F2B8D3C8D17C075
:1006F000CA0181709070892B61F0B694A794979489
:10070000879480E090E0A0E0B0E8882A992AAA2A9D
:10071000BB2A76956795579547952F5F3F4F77FD95
:10072000E7CFC9010BC0440F551F661F771FB7FCE9
:100730004160880C991CAA1CBB1C01974030A0E0AA
:100740005A07A0E06A07A0E47A0768F39C8F8B8FB2
:10075000DB01CA018F779070A070B0708034910572
:10076000A105B10561F447FD0AC081149104A104FB
:10077000B10429F0405C5F4F6F4F7F4F40784D8F41
:100780005E8F6F8F78A383E0898FBE01675E7F4F96
:10079000CB012BD1E0E1A096ECC2A8E1B0E0E2ED04
:1007A000F3E0D5C269837A838B839C832D833E8358
:1007B0004F83588789E0E82EF12CEC0EFD1EB7011F
:1007C000CE010196F2D18E010F5E1F4FB801CE010E
:1007D0000596EBD18985823058F08989823040F0C6
:1007E000B801C70152D2282F332727FD309502C008
:1007F0002FEF3FEFC901E6E06896C5C2A8E0B0E080
:10080000E3E0F4E0A1C29B01AC0183E08983DA015B
:10081000C9018827B7FD83959927AA27BB27B82E3A
:10082000211531054105510519F482E0898339C04C
:100830008823A9F0203080E0380780E0480780E86E
:10084000580729F460E070E080E09FEC2EC0EE24B1
:10085000FF248701E21AF30A040B150B02C0790189
:100860008A018EE1C82ED12CDC82CB82ED82FE8201
:100870000F831887C801B7016BD0019718161906A6
:1008800084F4082E04C0EE0CFF1C001F111F0A94F4
:10089000D2F7ED82FE820F831887C81AD90ADC824C
:1008A000CB82BA82CE010196A0D0E9E0289668C238
:1008B000ACE0B0E0EDE5F4E04EC269837A838B836F
:1008C0009C83BE016B5F7F4FCE0101966ED18D81FF
:1008D0008230A9F1823098F1843021F48E8188230E
:1008E00059F40FC02F81388537FD29C06E812F3113
:1008F000310564F0662329F020E030E040E050E864
:1009000022C02FEF3FEF4FEF5FE71DC08EE190E079
:10091000821B930B29853A854B855C8504C05695CF
:100920004795379527958A95D2F7662361F05095BC
:100930004095309521953F4F4F4F5F4F04C020E0C9
:1009400030E040E050E0CA01B901E2E02C961FC25D
:10095000EF92FF920F931F939B01AC01203080E038
:10096000380781E0480780E0580780F42F3F3105C1
:100970004105510509F020F4EE24FF24870119C038
:1009800068E0E62EF12C012D112D13C0203080E0FF
:10099000380780E0480781E0580730F490E1E92EFD
:1009A000F12C012D112D05C088E1E82EF12C012D2F
:1009B000112D80E290E0A0E0B0E08E199F09A00B1D
:1009C000B10B04C05695479537952795EA94D2F711
:1009D000F901E859FF4F2081821B9109A109B10952
:1009E0001F910F91FF90EF9008959F92AF92BF9249
:1009F000CF92DF92EF92FF920F931F93EE24FF248A
:100A00008701FC0124813581468157819180808155
:100A1000823010F44061A2C0843009F49BC082305F
:100A200029F420E030E040E050E005C02115310518
:100A30004105510519F4E0E0F0E092C08281938114
:100A40006FEF823896070CF05AC062E87FEF681BA0
:100A5000790B6A3171052CF020E030E040E050E085
:100A60002AC0AA24BB24650181E090E0A0E0B0E0A8
:100A7000062E04C0880F991FAA1FBB1F0A94D2F725
:100A80000197A109B10982239323A423B5230097D9
:100A9000A105B10529F071E0A72EB12CC12CD12CF4
:100AA00004C056954795379527956A95D2F72A2918
:100AB0003B294C295D29DA01C9018F779070A0701C
:100AC000B07080349105A105B10539F427FF09C044
:100AD000205C3F4F4F4F5F4F04C0215C3F4F4F4F53
:100AE0005F4F80E090E0203060E0360760E046072E
:100AF00060E4560710F081E090E0FC0123C08038EC
:100B0000910544F5FC01E158FF4FDA01C9018F77E7
:100B10009070A070B07080349105A105B10539F4D2
:100B200027FF09C0205C3F4F4F4F5F4F04C0215C3F
:100B30003F4F4F4F5F4F57FF05C05695479537952D
:100B40002795319687E056954795379527958A954D
:100B5000D1F706C020E030E040E050E0EFEFF0E0F9
:100B6000E22EF32E942F9F77802F8078892B9E2F53
:100B70009795992797958F77082F092B9E2F9695F4
:100B8000812F8078892B9794992497948F77182FA9
:100B90001929C801B7011F910F91FF90EF90DF90C5
:100BA000CF90BF90AF909F900895CF93DF93FC01BB
:100BB000DB01208131819281492F4F7750E0991FCD
:100BC0009927991F8381E82FEE0FE92B6E2F70E094
:100BD000881F8827881FED018983EE2371F5211571
:100BE00031054105510511F482E02FC06E57704068
:100BF000FD017383628367E0220F331F441F551F7B
:100C00006A95D1F783E08C930AC0220F331F441FEB
:100C1000551FED018A819B8101979B838A83203038
:100C2000E0E03E07E0E04E07E0E45E0770F3ED0130
:100C30002C833D834E835F8325C0EF3F79F42115DC
:100C400031054105510519F484E08C931BC044FF24
:100C500003C081E08C9311C01C920FC06F5770408D
:100C6000ED017B836A8383E08C9387E0220F331F3F
:100C7000441F551F8A95D1F75064FD0124833583A5
:100C800046835783DF91CF910895CF93DF93DC01A3
:100C9000FB019C91923008F446C08081823008F4B8
:100CA00042C0943049F4ED016981843079F5818145
:100CB00090E0861B91093CC0843021F0923031F4E1
:100CC0008230A1F18181882371F52AC0ED0169810B
:100CD0008230E1F081816817C9F4ED012A813B81FE
:100CE00082819381821793078CF028173907B4F01B
:100CF000ED018C819D81AE81BF812481358146814A
:100D00005781281739074A075B0718F4662341F40F
:100D10000AC082179307A407B50740F4662319F4A5
:100D20008FEF9FEF05C081E090E002C080E090E08F
:100D3000DF91CF9108952F923F924F925F926F92E1
:100D40007F928F929F92AF92BF92CF92DF92EF925B
:100D5000FF920F931F93CF93DF93CDB7DEB7CA1BDC
:100D6000DB0B0FB6F894DEBF0FBECDBF09942A8807
:100D7000398848885F846E847D848C849B84AA84AF
:100D8000B984C884DF80EE80FD800C811B81AA813C
:100D9000B981CE0FD11D0FB6F894DEBF0FBECDBF07
:060DA000ED010895FFCFF4
:100DA600000000000000000000010202030303032C
:100DB60004040404040404040505050505050505E5
:100DC60005050505050505050606060606060606C5
:100DD60006060606060606060606060606060606AD
:100DE6000606060606060606070707070707070795
:100DF600070707070707070707070707070707077D
:100E0600070707070707070707070707070707076C
:100E1600070707070707070707070707070707075C
:100E26000707070707070707080808080808080844
:100E3600080808080808080808080808080808082C
:100E4600080808080808080808080808080808081C
:100E5600080808080808080808080808080808080C
:100E660008080808080808080808080808080808FC
:100E760008080808080808080808080808080808EC
:100E860008080808080808080808080808080808DC
:100E960008080808080808080808080808080808CC
:080EA600080808080808080804
:00000001FF
